{
  "abi": [
    {
      "inputs": [
        {
          "internalType": "address",
          "name": "",
          "type": "address"
        }
      ],
      "name": "Balances",
      "outputs": [
        {
          "internalType": "uint256",
          "name": "",
          "type": "uint256"
        }
      ],
      "stateMutability": "view",
      "type": "function"
    },
    {
      "inputs": [],
      "name": "getBalance",
      "outputs": [
        {
          "internalType": "uint256",
          "name": "",
          "type": "uint256"
        }
      ],
      "stateMutability": "view",
      "type": "function"
    },
    {
      "inputs": [
        {
          "internalType": "address",
          "name": "_address",
          "type": "address"
        },
        {
          "internalType": "address",
          "name": "_to",
          "type": "address"
        }
      ],
      "name": "withdraw",
      "outputs": [],
      "stateMutability": "payable",
      "type": "function"
    },
    {
      "stateMutability": "payable",
      "type": "receive"
    }
  ],
  "bytecode": {
    "object": "0x608060405234801561001057600080fd5b506101ed806100206000396000f3fe6080604052600436106100385760003560e01c806312065fe014610069578063a8ec4c421461008a578063f940e385146100b757600080fd5b3661006457336000908152602081905260408120805434929061005c90849061011f565b925050819055005b600080fd5b34801561007557600080fd5b50475b60405190815260200160405180910390f35b34801561009657600080fd5b506100786100a5366004610162565b60006020819052908152604090205481565b6100ca6100c5366004610184565b6100cc565b005b6001600160a01b038083166000908152602081905260408082208054908390559051909284169183156108fc02918491818181858888f19350505050158015610119573d6000803e3d6000fd5b50505050565b8082018082111561014057634e487b7160e01b600052601160045260246000fd5b92915050565b80356001600160a01b038116811461015d57600080fd5b919050565b60006020828403121561017457600080fd5b61017d82610146565b9392505050565b6000806040838503121561019757600080fd5b6101a083610146565b91506101ae60208401610146565b9050925092905056fea2646970667358221220fb812dad8d18cf0c13f56fdaa68d92f5764a2aefbfce59fcf63a20fa2a44e81064736f6c63430008150033",
    "linkReferences": {}
  },
  "methodIdentifiers": {
    "Balances(address)": "a8ec4c42",
    "getBalance()": "12065fe0",
    "withdraw(address,address)": "f940e385"
  },
  "id": 24
}