{
  "abi": [
    {
      "inputs": [
        {
          "internalType": "contract ERC20TD",
          "name": "_erc20tdAddress",
          "type": "address"
        }
      ],
      "stateMutability": "nonpayable",
      "type": "constructor"
    },
    {
      "anonymous": false,
      "inputs": [
        {
          "indexed": false,
          "internalType": "address",
          "name": "erc20Address",
          "type": "address"
        }
      ],
      "name": "constructedCorrectly",
      "type": "event"
    },
    {
      "anonymous": false,
      "inputs": [
        {
          "indexed": false,
          "internalType": "string",
          "name": "ticker",
          "type": "string"
        },
        {
          "indexed": false,
          "internalType": "uint256",
          "name": "supply",
          "type": "uint256"
        }
      ],
      "name": "newRandomTickerAndSupply",
      "type": "event"
    },
    {
      "stateMutability": "payable",
      "type": "fallback"
    },
    {
      "inputs": [
        {
          "internalType": "address",
          "name": "",
          "type": "address"
        }
      ],
      "name": "assignedSupply",
      "outputs": [
        {
          "internalType": "uint256",
          "name": "",
          "type": "uint256"
        }
      ],
      "stateMutability": "view",
      "type": "function"
    },
    {
      "inputs": [
        {
          "internalType": "address",
          "name": "",
          "type": "address"
        }
      ],
      "name": "assignedTicker",
      "outputs": [
        {
          "internalType": "string",
          "name": "",
          "type": "string"
        }
      ],
      "stateMutability": "view",
      "type": "function"
    },
    {
      "inputs": [
        {
          "internalType": "bytes32",
          "name": "_bytes32",
          "type": "bytes32"
        }
      ],
      "name": "bytes32ToString",
      "outputs": [
        {
          "internalType": "string",
          "name": "",
          "type": "string"
        }
      ],
      "stateMutability": "pure",
      "type": "function"
    },
    {
      "inputs": [],
      "name": "ex10_allInOne",
      "outputs": [],
      "stateMutability": "nonpayable",
      "type": "function"
    },
    {
      "inputs": [],
      "name": "ex1_getTickerAndSupply",
      "outputs": [],
      "stateMutability": "nonpayable",
      "type": "function"
    },
    {
      "inputs": [],
      "name": "ex2_testErc20TickerAndSupply",
      "outputs": [],
      "stateMutability": "nonpayable",
      "type": "function"
    },
    {
      "inputs": [],
      "name": "ex3_testGetToken",
      "outputs": [],
      "stateMutability": "nonpayable",
      "type": "function"
    },
    {
      "inputs": [],
      "name": "ex4_testBuyToken",
      "outputs": [],
      "stateMutability": "nonpayable",
      "type": "function"
    },
    {
      "inputs": [],
      "name": "ex5_testDenyListing",
      "outputs": [],
      "stateMutability": "nonpayable",
      "type": "function"
    },
    {
      "inputs": [],
      "name": "ex6_testAllowListing",
      "outputs": [],
      "stateMutability": "nonpayable",
      "type": "function"
    },
    {
      "inputs": [],
      "name": "ex7_testDenyListing",
      "outputs": [],
      "stateMutability": "nonpayable",
      "type": "function"
    },
    {
      "inputs": [
        {
          "internalType": "address",
          "name": "",
          "type": "address"
        }
      ],
      "name": "ex8Tier1AmountBought",
      "outputs": [
        {
          "internalType": "uint256",
          "name": "",
          "type": "uint256"
        }
      ],
      "stateMutability": "view",
      "type": "function"
    },
    {
      "inputs": [],
      "name": "ex8_testTier1Listing",
      "outputs": [],
      "stateMutability": "nonpayable",
      "type": "function"
    },
    {
      "inputs": [],
      "name": "ex9_testTier2Listing",
      "outputs": [],
      "stateMutability": "nonpayable",
      "type": "function"
    },
    {
      "inputs": [
        {
          "internalType": "address",
          "name": "",
          "type": "address"
        },
        {
          "internalType": "uint256",
          "name": "",
          "type": "uint256"
        }
      ],
      "name": "exerciceProgression",
      "outputs": [
        {
          "internalType": "bool",
          "name": "",
          "type": "bool"
        }
      ],
      "stateMutability": "view",
      "type": "function"
    },
    {
      "inputs": [
        {
          "internalType": "address",
          "name": "",
          "type": "address"
        }
      ],
      "name": "hasBeenPaired",
      "outputs": [
        {
          "internalType": "bool",
          "name": "",
          "type": "bool"
        }
      ],
      "stateMutability": "view",
      "type": "function"
    },
    {
      "inputs": [],
      "name": "nextValueStoreRank",
      "outputs": [
        {
          "internalType": "uint256",
          "name": "",
          "type": "uint256"
        }
      ],
      "stateMutability": "view",
      "type": "function"
    },
    {
      "inputs": [
        {
          "internalType": "address",
          "name": "studentAddres",
          "type": "address"
        }
      ],
      "name": "readSupply",
      "outputs": [
        {
          "internalType": "uint256",
          "name": "",
          "type": "uint256"
        }
      ],
      "stateMutability": "view",
      "type": "function"
    },
    {
      "inputs": [
        {
          "internalType": "address",
          "name": "studentAddres",
          "type": "address"
        }
      ],
      "name": "readTicker",
      "outputs": [
        {
          "internalType": "string",
          "name": "",
          "type": "string"
        }
      ],
      "stateMutability": "view",
      "type": "function"
    },
    {
      "inputs": [
        {
          "internalType": "uint256[20]",
          "name": "_randomSupplies",
          "type": "uint256[20]"
        },
        {
          "internalType": "string[20]",
          "name": "_randomTickers",
          "type": "string[20]"
        }
      ],
      "name": "setRandomTickersAndSupply",
      "outputs": [],
      "stateMutability": "nonpayable",
      "type": "function"
    },
    {
      "inputs": [
        {
          "internalType": "address",
          "name": "",
          "type": "address"
        }
      ],
      "name": "studentErc20",
      "outputs": [
        {
          "internalType": "contract IExerciceSolution",
          "name": "",
          "type": "address"
        }
      ],
      "stateMutability": "view",
      "type": "function"
    },
    {
      "inputs": [
        {
          "internalType": "contract IExerciceSolution",
          "name": "studentExercice",
          "type": "address"
        }
      ],
      "name": "submitExercice",
      "outputs": [],
      "stateMutability": "nonpayable",
      "type": "function"
    },
    {
      "inputs": [
        {
          "internalType": "address",
          "name": "",
          "type": "address"
        }
      ],
      "name": "teachers",
      "outputs": [
        {
          "internalType": "bool",
          "name": "",
          "type": "bool"
        }
      ],
      "stateMutability": "view",
      "type": "function"
    },
    {
      "stateMutability": "payable",
      "type": "receive"
    }
  ],
  "bytecode": {
    "object": "0x60806040523480156200001157600080fd5b5060405162002e7938038062002e7983398101604081905262000034916200008c565b600180546001600160a01b0319166001600160a01b0383169081179091556040519081527f2915b3b4e0613c6b63dca39a375dd8c9f1de68d9e208a0713b7624260e2d08129060200160405180910390a150620000be565b6000602082840312156200009f57600080fd5b81516001600160a01b0381168114620000b757600080fd5b9392505050565b612dab80620000ce6000396000f3fe6080604052600436106101375760003560e01c8063a6c611d9116100b0578063e22b5dcf1161006c578063e22b5dcf1461037d578063e22ebfd61461039d578063e8b4cb56146103eb578063ec65b16e14610400578063f0a47f7814610415578063f4fdbb881461044557005b8063a6c611d9146102dc578063afda5dc5146102f1578063b32b559f1461031e578063ccd64d7d14610333578063d1a2e76e14610348578063df70111f1461036857005b806339119dce116100ff57806339119dce1461020b5780633bc409561461022f5780637db60caf146102445780639201de551461027157806398f02097146102915780639f91f516146102a657005b8062a3491a146101405780630af78edc1461017657806316f4b99f1461018b5780632236d353146101a05780632e64c500146101c057005b3661013e57005b005b34801561014c57600080fd5b5061016061015b366004612541565b610475565b60405161016d9190612582565b60405180910390f35b34801561018257600080fd5b5061013e61050f565b34801561019757600080fd5b5061013e6106b5565b3480156101ac57600080fd5b5061013e6101bb366004612541565b6108ae565b3480156101cc57600080fd5b506101fb6101db3660046125b5565b602d60209081526000928352604080842090915290825290205460ff1681565b604051901515815260200161016d565b34801561021757600080fd5b50610221602a5481565b60405190815260200161016d565b34801561023b57600080fd5b5061013e610a86565b34801561025057600080fd5b5061022161025f366004612541565b602c6020526000908152604090205481565b34801561027d57600080fd5b5061016061028c3660046125e1565b610cfe565b34801561029d57600080fd5b5061013e610e35565b3480156102b257600080fd5b506102216102c1366004612541565b6001600160a01b03166000908152602c602052604090205490565b3480156102e857600080fd5b5061013e610f3f565b3480156102fd57600080fd5b5061022161030c366004612541565b602f6020526000908152604090205481565b34801561032a57600080fd5b5061013e611193565b34801561033f57600080fd5b5061013e611217565b34801561035457600080fd5b5061013e610363366004612693565b611432565b34801561037457600080fd5b5061013e61154b565b34801561038957600080fd5b50610160610398366004612541565b61188e565b3480156103a957600080fd5b506103d36103b8366004612541565b602e602052600090815260409020546001600160a01b031681565b6040516001600160a01b03909116815260200161016d565b3480156103f757600080fd5b5061013e61193a565b34801561040c57600080fd5b5061013e611eb5565b34801561042157600080fd5b506101fb610430366004612541565b60006020819052908152604090205460ff1681565b34801561045157600080fd5b506101fb610460366004612541565b60306020526000908152604090205460ff1681565b602b602052600090815260409020805461048e906127c3565b80601f01602080910402602001604051908101604052809291908181526020018280546104ba906127c3565b80156105075780601f106104dc57610100808354040283529160200191610507565b820191906000526020600020905b8154815290600101906020018083116104ea57829003601f168201915b505050505081565b336000908152602e60205260409020546001600160a01b031661054d5760405162461bcd60e51b8152600401610544906127fd565b60405180910390fd5b336000908152602d602090815260408083206005845290915290205460ff1661057557600080fd5b336000908152602e60205260409081902054905163d48a87f160e01b81523060048201526001600160a01b039091169063d48a87f1906024016020604051808303816000875af11580156105cd573d6000803e3d6000fd5b505050506040513d601f19601f820116820180604052508101906105f19190612834565b6105fa57600080fd5b610602610a86565b336000908152602d602090815260408083206006845290915290205460ff166106b357336000818152602d602090815260408083206006845290915290819020805460ff191660019081179091555490516302b1493160e31b81526001600160a01b03919091169163158a4988916106809190600290600401612856565b600060405180830381600087803b15801561069a57600080fd5b505af11580156106ae573d6000803e3d6000fd5b505050505b565b336000908152602e60205260409020546001600160a01b03166106ea5760405162461bcd60e51b8152600401610544906127fd565b336000908152602d602090815260408083206007845290915290205460ff1661071257600080fd5b336000908152602e60205260409081902054905163d48a87f160e01b81523060048201526001600160a01b039091169063d48a87f1906024016020604051808303816000875af115801561076a573d6000803e3d6000fd5b505050506040513d601f19601f8201168201806040525081019061078e9190612834565b61079757600080fd5b336000908152602e602052604090819020549051638dd3fda960e01b81523060048201526001600160a01b0390911690638dd3fda9906024016020604051808303816000875af11580156107ef573d6000803e3d6000fd5b505050506040513d601f19601f82011682018060405250810190610813919061286f565b60011461081f57600080fd5b61082761207d565b336000908152602f6020908152604080832093909355602d8152828220600883529052205460ff166106b357336000818152602d602090815260408083206008845290915290819020805460ff191660019081179091555490516302b1493160e31b81526001600160a01b03919091169163158a4988916106809190600290600401612856565b6001600160a01b03811660009081526030602052604090205460ff16156108d457600080fd5b336000818152602e6020908152604080832080546001600160a01b0319166001600160a01b038716908117909155835260308252808320805460ff19166001179055928252602d81528282208280529052205460ff16610a8357336000818152602d6020908152604080832083805290915290819020805460ff191660019081179091555490516302b1493160e31b81526001600160a01b03919091169163158a4988916109889190600290600401612856565b600060405180830381600087803b1580156109a257600080fd5b505af11580156109b6573d6000803e3d6000fd5b50506001546040516302b1493160e31b81526001600160a01b03909116925063158a498891506109ed903390600290600401612856565b600060405180830381600087803b158015610a0757600080fd5b505af1158015610a1b573d6000803e3d6000fd5b5050600180546040516302b1493160e31b81526001600160a01b03909116935063158a49889250610a50913391600401612856565b600060405180830381600087803b158015610a6a57600080fd5b505af1158015610a7e573d6000803e3d6000fd5b505050505b50565b336000908152602e60205260409020546001600160a01b0316610abb5760405162461bcd60e51b8152600401610544906127fd565b336000908152602e60205260408082205490516370a0823160e01b81523060048201526001600160a01b03909116906370a0823190602401602060405180830381865afa158015610b10573d6000803e3d6000fd5b505050506040513d601f19601f82011682018060405250810190610b34919061286f565b336000908152602e602090815260408083205481516321df0da760e01b815291519495506001600160a01b0316936321df0da7936004808401949383900301908290875af1158015610b8a573d6000803e3d6000fd5b505050506040513d601f19601f82011682018060405250810190610bae9190612834565b50336000908152602e60205260408082205490516370a0823160e01b81523060048201526001600160a01b03909116906370a0823190602401602060405180830381865afa158015610c04573d6000803e3d6000fd5b505050506040513d601f19601f82011682018060405250810190610c28919061286f565b9050808210610c495760405162461bcd60e51b815260040161054490612888565b336000908152602d602090815260408083206003845290915290205460ff16610cfa57336000818152602d602090815260408083206003845290915290819020805460ff191660019081179091555490516302b1493160e31b81526001600160a01b03919091169163158a498891610cc79190600290600401612856565b600060405180830381600087803b158015610ce157600080fd5b505af1158015610cf5573d6000803e3d6000fd5b505050505b5050565b606060005b60208160ff16108015610d375750828160ff1660208110610d2657610d266128bf565b1a60f81b6001600160f81b03191615155b15610d4e5780610d46816128eb565b915050610d03565b60008160ff1667ffffffffffffffff811115610d6c57610d6c6125fa565b6040519080825280601f01601f191660200182016040528015610d96576020820181803683370190505b509050600091505b60208260ff16108015610dd25750838260ff1660208110610dc157610dc16128bf565b1a60f81b6001600160f81b03191615155b15610e2e57838260ff1660208110610dec57610dec6128bf565b1a60f81b818360ff1681518110610e0557610e056128bf565b60200101906001600160f81b031916908160001a90535081610e26816128eb565b925050610d9e565b9392505050565b6002602a5460148110610e4a57610e4a6128bf565b0154610e5e90670de0b6b3a764000061290a565b336000908152602c6020526040902055602a5460169060148110610e8457610e846128bf565b336000908152602b6020526040902091610e9f910182612967565b506001602a6000828254610eb39190612a44565b9091555050602a54601411610ec8576000602a555b336000908152602d602090815260408083206001845290915290205460ff166106b357336000818152602d602090815260408083206001808552925291829020805460ff191682179055805491516302b1493160e31b81526001600160a01b039092169263158a4988926106809290600401612856565b336000908152602e60205260409020546001600160a01b0316610f745760405162461bcd60e51b8152600401610544906127fd565b336000908152602e60205260409081902054905163d48a87f160e01b81523060048201526001600160a01b039091169063d48a87f1906024016020604051808303816000875af1158015610fcc573d6000803e3d6000fd5b505050506040513d601f19601f82011682018060405250810190610ff09190612834565b15610ffa57600080fd5b336000908152602e602052604090819020549051638dd3fda960e01b81523060048201526001600160a01b0390911690638dd3fda9906024016020604051808303816000875af1158015611052573d6000803e3d6000fd5b505050506040513d601f19601f82011682018060405250810190611076919061286f565b1561108057600080fd5b336000908152602e602090815260409182902054825163a482171960e01b815292516001936001600160a01b039092169263a482171992655af3107a40009260048083019392829003018185885af1935050505080156110fd575060408051601f3d908101601f191682019092526110fa91810190612834565b60015b6111095750600061110c565b90505b801561111757600080fd5b336000908152602d602090815260408083206007845290915290205460ff16610a8357336000818152602d602090815260408083206007845290915290819020805460ff19166001908117909155805491516302b1493160e31b81526001600160a01b03929092169263158a498892610a509290600401612856565b61119b61207d565b50336000908152602d602090815260408083206004845290915290205460ff166106b357336000818152602d602090815260408083206004808552925291829020805460ff191660019081179091555491516302b1493160e31b81526001600160a01b03929092169263158a4988926106809260029101612856565b336000908152602e60205260409020546001600160a01b031661124c5760405162461bcd60e51b8152600401610544906127fd565b336000908152602d602090815260408083206007845290915290205460ff1661127457600080fd5b336000908152602e60205260409081902054905163d48a87f160e01b81523060048201526001600160a01b039091169063d48a87f1906024016020604051808303816000875af11580156112cc573d6000803e3d6000fd5b505050506040513d601f19601f820116820180604052508101906112f09190612834565b6112f957600080fd5b336000908152602e602052604090819020549051638dd3fda960e01b81523060048201526001600160a01b0390911690638dd3fda9906024016020604051808303816000875af1158015611351573d6000803e3d6000fd5b505050506040513d601f19601f82011682018060405250810190611375919061286f565b60021461138157600080fd5b600061138b61207d565b336000908152602f60205260409020549091506113a990600261290a565b81146113b457600080fd5b336000908152602d602090815260408083206009845290915290205460ff16610a8357336000818152602d602090815260408083206009845290915290819020805460ff191660019081179091555490516302b1493160e31b81526001600160a01b03919091169163158a498891610a509190600290600401612856565b600154604051631e148fef60e31b81523360048201526001600160a01b039091169063f0a47f7890602401602060405180830381865afa15801561147a573d6000803e3d6000fd5b505050506040513d601f19601f8201168201806040525081019061149e9190612834565b6114a757600080fd5b6114b4600283601461243d565b506114c2601682601461247b565b506000602a8190555b6014811015611546577fcc783cf5d663570e7c7576cec91f24975b35b957c8dd67766710be25c48cf60260168260148110611508576115086128bf565b016002836014811061151c5761151c6128bf565b015460405161152c929190612a57565b60405180910390a18061153e81612aeb565b9150506114cb565b505050565b6001546040516370a0823160e01b81523360048201526000916001600160a01b0316906370a0823190602401602060405180830381865afa158015611594573d6000803e3d6000fd5b505050506040513d601f19601f820116820180604052508101906115b8919061286f565b905080156116145760405162461bcd60e51b815260206004820152602360248201527f536f6c7574696f6e2073686f756c642073746172742077697468203020706f696044820152626e747360e81b6064820152608401610544565b6000339050806001600160a01b03166359b4726c6040518163ffffffff1660e01b8152600401600060405180830381600087803b15801561165457600080fd5b505af1158015611668573d6000803e3d6000fd5b50506001546040516370a0823160e01b8152336004820152600093506001600160a01b0390911691506370a0823190602401602060405180830381865afa1580156116b7573d6000803e3d6000fd5b505050506040513d601f19601f820116820180604052508101906116db919061286f565b90506000600160009054906101000a90046001600160a01b03166001600160a01b031663313ce5676040518163ffffffff1660e01b8152600401602060405180830381865afa158015611732573d6000803e3d6000fd5b505050506040513d601f19601f820116820180604052508101906117569190612b04565b60ff16905061176681600a612c0b565b61177190601261290a565b8210156117d85760405162461bcd60e51b815260206004820152602f60248201527f536f6c7574696f6e2073686f756c6420656e642077697468206174206c65617360448201526e74207468616e203220706f696e747360881b6064820152608401610544565b336000908152602d60209081526040808320600a845290915290205460ff166106ae57336000818152602d60209081526040808320600a845290915290819020805460ff191660019081179091555490516302b1493160e31b81526001600160a01b03919091169163158a4988916118569190600290600401612856565b600060405180830381600087803b15801561187057600080fd5b505af1158015611884573d6000803e3d6000fd5b5050505050505050565b6001600160a01b0381166000908152602b602052604090208054606091906118b5906127c3565b80601f01602080910402602001604051908101604052809291908181526020018280546118e1906127c3565b801561192e5780601f106119035761010080835404028352916020019161192e565b820191906000526020600020905b81548152906001019060200180831161191157829003601f168201915b50505050509050919050565b336000908152602d602090815260408083206001845290915290205460ff1661196257600080fd5b336000908152602d6020908152604080832083805290915290205460ff1661198957600080fd5b336000908152602b602052604090208054611aa591906119a8906127c3565b80601f01602080910402602001604051908101604052809291908181526020018280546119d4906127c3565b8015611a215780601f106119f657610100808354040283529160200191611a21565b820191906000526020600020905b815481529060010190602001808311611a0457829003601f168201915b5050336000908152602e60205260408082205481516395d89b4160e01b815291516001600160a01b0390911695506395d89b4194506004808301945090918290030181865afa158015611a78573d6000803e3d6000fd5b505050506040513d6000823e601f3d908101601f19168201604052611aa09190810190612c17565b6123e3565b611ae45760405162461bcd60e51b815260206004820152601060248201526f24b731b7b93932b1ba103a34b1b5b2b960811b6044820152606401610544565b336000908152602e60209081526040918290205482516318160ddd60e01b815292516001600160a01b03909116926318160ddd9260048083019391928290030181865afa158015611b39573d6000803e3d6000fd5b505050506040513d601f19601f82011682018060405250810190611b5d919061286f565b336000908152602c602052604090205414611bad5760405162461bcd60e51b815260206004820152601060248201526f496e636f727265637420737570706c7960801b6044820152606401610544565b336000818152602e602052604090819020549051636eb1769f60e11b815230600482015260248101929092526001600160a01b03169063dd62ed3e90604401602060405180830381865afa158015611c09573d6000803e3d6000fd5b505050506040513d601f19601f82011682018060405250810190611c2d919061286f565b15611c8f5760405162461bcd60e51b815260206004820152602c60248201527f416c6c6f77616e6365206e6f7420696d706c656d656e746564206f7220696e6360448201526b1bdc9c9958dd1b1e481cd95d60a21b6064820152608401610544565b336000908152602e6020526040908190205490516370a0823160e01b81523060048201526001600160a01b03909116906370a0823190602401602060405180830381865afa158015611ce5573d6000803e3d6000fd5b505050506040513d601f19601f82011682018060405250810190611d09919061286f565b15611d6b5760405162461bcd60e51b815260206004820152602c60248201527f42616c616e63654f66206e6f7420696d706c656d656e746564206f7220696e6360448201526b1bdc9c9958dd1b1e481cd95d60a21b6064820152608401610544565b336000818152602e60205260409081902054905163095ea7b360e01b81526001600160a01b039091169163095ea7b391611dab9190600a90600401612856565b6020604051808303816000875af1158015611dca573d6000803e3d6000fd5b505050506040513d601f19601f82011682018060405250810190611dee9190612834565b611e3a5760405162461bcd60e51b815260206004820152601760248201527f417070726f7665206e6f7420696d706c656d656e7465640000000000000000006044820152606401610544565b336000908152602d602090815260408083206002845290915290205460ff166106b357336000818152602d602090815260408083206002808552925291829020805460ff191660019081179091555491516302b1493160e31b81526001600160a01b03929092169263158a4988926106809290600401612856565b336000908152602e60205260409020546001600160a01b0316611eea5760405162461bcd60e51b8152600401610544906127fd565b336000908152602e60205260409081902054905163d48a87f160e01b81523060048201526001600160a01b039091169063d48a87f1906024016020604051808303816000875af1158015611f42573d6000803e3d6000fd5b505050506040513d601f19601f82011682018060405250810190611f669190612834565b15611f7057600080fd5b336000908152602e602090815260408083205481516321df0da760e01b815291516001946001600160a01b03909216936321df0da7936004808201949293929183900301908290875af1925050508015611fe7575060408051601f3d908101601f19168201909252611fe491810190612834565b60015b611ff357506000611ff6565b90505b801561200157600080fd5b336000908152602d602090815260408083206005845290915290205460ff16610a8357336000818152602d602090815260408083206005845290915290819020805460ff19166001908117909155805491516302b1493160e31b81526001600160a01b03929092169263158a498892610a509290600401612856565b336000908152602e60205260408120546001600160a01b03166120b25760405162461bcd60e51b8152600401610544906127fd565b336000908152602e60205260408082205490516370a0823160e01b81523060048201526001600160a01b03909116906370a0823190602401602060405180830381865afa158015612107573d6000803e3d6000fd5b505050506040513d601f19601f8201168201806040525081019061212b919061286f565b336000908152602e602090815260409182902054825163a482171960e01b815292519394506001600160a01b03169263a482171992655af3107a4000926004808301939192829003018185885af115801561218a573d6000803e3d6000fd5b50505050506040513d601f19601f820116820180604052508101906121af9190612834565b50336000908152602e60205260408082205490516370a0823160e01b81523060048201526001600160a01b03909116906370a0823190602401602060405180830381865afa158015612205573d6000803e3d6000fd5b505050506040513d601f19601f82011682018060405250810190612229919061286f565b905080821061224a5760405162461bcd60e51b815260040161054490612888565b6122548282612c8e565b336000908152602e602090815260409182902054825163a482171960e01b815292519396506001600160a01b03169263a482171992660110d9316ec000926004808301939192829003018185885af11580156122b4573d6000803e3d6000fd5b50505050506040513d601f19601f820116820180604052508101906122d99190612834565b50336000908152602e60205260408082205490516370a0823160e01b81523060048201526001600160a01b03909116906370a0823190602401602060405180830381865afa15801561232f573d6000803e3d6000fd5b505050506040513d601f19601f82011682018060405250810190612353919061286f565b90508082106123745760405162461bcd60e51b815260040161054490612888565b60006123808383612c8e565b90508481116123dc5760405162461bcd60e51b815260206004820152602260248201527f5365636f6e642062757920616d6f756e74206c6f776572207468616e206669726044820152611cdd60f21b6064820152608401610544565b5050505090565b6000816040516020016123f69190612ca1565b604051602081830303815290604052805190602001208360405160200161241d9190612ca1565b604051602081830303815290604052805190602001201490505b92915050565b826014810192821561246b579160200282015b8281111561246b578251825591602001919060010190612450565b506124779291506124c0565b5090565b82601481019282156124b4579160200282015b828111156124b457825182906124a49082612cbd565b509160200191906001019061248e565b506124779291506124d5565b5b8082111561247757600081556001016124c1565b808211156124775760006124e982826124f2565b506001016124d5565b5080546124fe906127c3565b6000825580601f1061250e575050565b601f016020900490600052602060002090810190610a8391906124c0565b6001600160a01b0381168114610a8357600080fd5b60006020828403121561255357600080fd5b8135610e2e8161252c565b60005b83811015612579578181015183820152602001612561565b50506000910152565b60208152600082518060208401526125a181604085016020870161255e565b601f01601f19169190910160400192915050565b600080604083850312156125c857600080fd5b82356125d38161252c565b946020939093013593505050565b6000602082840312156125f357600080fd5b5035919050565b634e487b7160e01b600052604160045260246000fd5b604051610280810167ffffffffffffffff81118282101715612634576126346125fa565b60405290565b604051601f8201601f1916810167ffffffffffffffff81118282101715612663576126636125fa565b604052919050565b600067ffffffffffffffff821115612685576126856125fa565b50601f01601f191660200190565b6000806102a083850312156126a757600080fd5b601f84818501126126b757600080fd5b6126bf612610565b80610280808701888111156126d357600080fd5b875b818110156126ed5780358552602094850194016126d5565b509195509035915067ffffffffffffffff908183111561270c57600080fd5b8287019250878484011261271f57600080fd5b612727612610565b90830190808983111561273957600080fd5b845b838110156127b2578035858111156127535760008081fd5b86018781018c136127645760008081fd5b803560206127796127748361266b565b61263a565b8281528e8284860101111561278e5760008081fd5b8282850183830137600092810182019290925290855293909301925060200161273b565b508096505050505050509250929050565b600181811c908216806127d757607f821691505b6020821081036127f757634e487b7160e01b600052602260045260246000fd5b50919050565b6020808252601c908201527f53747564656e74204552433230206e6f74207265676973746572656400000000604082015260600190565b60006020828403121561284657600080fd5b81518015158114610e2e57600080fd5b6001600160a01b03929092168252602082015260400190565b60006020828403121561288157600080fd5b5051919050565b6020808252601e908201527f546f6b656e2062616c616e636520646964206e6f7420696e6372656173650000604082015260600190565b634e487b7160e01b600052603260045260246000fd5b634e487b7160e01b600052601160045260246000fd5b600060ff821660ff8103612901576129016128d5565b60010192915050565b8082028115828204841417612437576124376128d5565b601f82111561154657600081815260208120601f850160051c810160208610156129485750805b601f850160051c820191505b81811015610cf557828155600101612954565b818103612972575050565b61297c82546127c3565b67ffffffffffffffff811115612994576129946125fa565b6129a8816129a284546127c3565b84612921565b6000601f8211600181146129dc57600083156129c45750848201545b600019600385901b1c1916600184901b178455610a7e565b600085815260209020601f19841690600086815260209020845b83811015612a1657828601548255600195860195909101906020016129f6565b5085831015612a345781850154600019600388901b60f8161c191681555b5050505050600190811b01905550565b80820180821115612437576124376128d5565b604081526000808454612a69816127c3565b8060408601526060600180841660008114612a8b5760018114612aa557612ad6565b60ff1985168884015283151560051b880183019550612ad6565b8960005260208060002060005b86811015612acd5781548b8201870152908401908201612ab2565b8a018501975050505b50505050506020929092019290925292915050565b600060018201612afd57612afd6128d5565b5060010190565b600060208284031215612b1657600080fd5b815160ff81168114610e2e57600080fd5b600181815b80851115612b62578160001904821115612b4857612b486128d5565b80851615612b5557918102915b93841c9390800290612b2c565b509250929050565b600082612b7957506001612437565b81612b8657506000612437565b8160018114612b9c5760028114612ba657612bc2565b6001915050612437565b60ff841115612bb757612bb76128d5565b50506001821b612437565b5060208310610133831016604e8410600b8410161715612be5575081810a612437565b612bef8383612b27565b8060001904821115612c0357612c036128d5565b029392505050565b6000610e2e8383612b6a565b600060208284031215612c2957600080fd5b815167ffffffffffffffff811115612c4057600080fd5b8201601f81018413612c5157600080fd5b8051612c5f6127748261266b565b818152856020838501011115612c7457600080fd5b612c8582602083016020860161255e565b95945050505050565b81810381811115612437576124376128d5565b60008251612cb381846020870161255e565b9190910192915050565b815167ffffffffffffffff811115612cd757612cd76125fa565b612ce5816129a284546127c3565b602080601f831160018114612d1a5760008415612d025750858301515b600019600386901b1c1916600185901b178555610cf5565b600085815260208120601f198616915b82811015612d4957888601518255948401946001909101908401612d2a565b5085821015612a3457939096015160001960f8600387901b161c19169092555050600190811b0190555056fea2646970667358221220c1a909a80b1cc198b1d162ebd9fbaebe7a443f7432ee00a94f4e803520a5f7f364736f6c63430008150033",
    "linkReferences": {}
  },
  "methodIdentifiers": {
    "assignedSupply(address)": "7db60caf",
    "assignedTicker(address)": "00a3491a",
    "bytes32ToString(bytes32)": "9201de55",
    "ex10_allInOne()": "df70111f",
    "ex1_getTickerAndSupply()": "98f02097",
    "ex2_testErc20TickerAndSupply()": "e8b4cb56",
    "ex3_testGetToken()": "3bc40956",
    "ex4_testBuyToken()": "b32b559f",
    "ex5_testDenyListing()": "ec65b16e",
    "ex6_testAllowListing()": "0af78edc",
    "ex7_testDenyListing()": "a6c611d9",
    "ex8Tier1AmountBought(address)": "afda5dc5",
    "ex8_testTier1Listing()": "16f4b99f",
    "ex9_testTier2Listing()": "ccd64d7d",
    "exerciceProgression(address,uint256)": "2e64c500",
    "hasBeenPaired(address)": "f4fdbb88",
    "nextValueStoreRank()": "39119dce",
    "readSupply(address)": "9f91f516",
    "readTicker(address)": "e22b5dcf",
    "setRandomTickersAndSupply(uint256[20],string[20])": "d1a2e76e",
    "studentErc20(address)": "e22ebfd6",
    "submitExercice(address)": "2236d353",
    "teachers(address)": "f0a47f78"
  },
  "id": 21
}