{
  "abi": [
    {
      "inputs": [
        {
          "internalType": "string",
          "name": "name",
          "type": "string"
        },
        {
          "internalType": "string",
          "name": "symbol",
          "type": "string"
        },
        {
          "internalType": "uint256",
          "name": "initialSupply",
          "type": "uint256"
        }
      ],
      "stateMutability": "nonpayable",
      "type": "constructor"
    },
    {
      "inputs": [
        {
          "internalType": "address",
          "name": "spender",
          "type": "address"
        },
        {
          "internalType": "uint256",
          "name": "allowance",
          "type": "uint256"
        },
        {
          "internalType": "uint256",
          "name": "needed",
          "type": "uint256"
        }
      ],
      "name": "ERC20InsufficientAllowance",
      "type": "error"
    },
    {
      "inputs": [
        {
          "internalType": "address",
          "name": "sender",
          "type": "address"
        },
        {
          "internalType": "uint256",
          "name": "balance",
          "type": "uint256"
        },
        {
          "internalType": "uint256",
          "name": "needed",
          "type": "uint256"
        }
      ],
      "name": "ERC20InsufficientBalance",
      "type": "error"
    },
    {
      "inputs": [
        {
          "internalType": "address",
          "name": "approver",
          "type": "address"
        }
      ],
      "name": "ERC20InvalidApprover",
      "type": "error"
    },
    {
      "inputs": [
        {
          "internalType": "address",
          "name": "receiver",
          "type": "address"
        }
      ],
      "name": "ERC20InvalidReceiver",
      "type": "error"
    },
    {
      "inputs": [
        {
          "internalType": "address",
          "name": "sender",
          "type": "address"
        }
      ],
      "name": "ERC20InvalidSender",
      "type": "error"
    },
    {
      "inputs": [
        {
          "internalType": "address",
          "name": "spender",
          "type": "address"
        }
      ],
      "name": "ERC20InvalidSpender",
      "type": "error"
    },
    {
      "anonymous": false,
      "inputs": [
        {
          "indexed": true,
          "internalType": "address",
          "name": "owner",
          "type": "address"
        },
        {
          "indexed": true,
          "internalType": "address",
          "name": "spender",
          "type": "address"
        },
        {
          "indexed": false,
          "internalType": "uint256",
          "name": "value",
          "type": "uint256"
        }
      ],
      "name": "Approval",
      "type": "event"
    },
    {
      "anonymous": false,
      "inputs": [
        {
          "indexed": false,
          "internalType": "address",
          "name": "recipient",
          "type": "address"
        },
        {
          "indexed": false,
          "internalType": "uint256",
          "name": "amount",
          "type": "uint256"
        }
      ],
      "name": "DenyTransfer",
      "type": "event"
    },
    {
      "anonymous": false,
      "inputs": [
        {
          "indexed": false,
          "internalType": "address",
          "name": "sender",
          "type": "address"
        },
        {
          "indexed": false,
          "internalType": "address",
          "name": "recipient",
          "type": "address"
        },
        {
          "indexed": false,
          "internalType": "uint256",
          "name": "amount",
          "type": "uint256"
        }
      ],
      "name": "DenyTransferFrom",
      "type": "event"
    },
    {
      "anonymous": false,
      "inputs": [
        {
          "indexed": true,
          "internalType": "address",
          "name": "from",
          "type": "address"
        },
        {
          "indexed": true,
          "internalType": "address",
          "name": "to",
          "type": "address"
        },
        {
          "indexed": false,
          "internalType": "uint256",
          "name": "value",
          "type": "uint256"
        }
      ],
      "name": "Transfer",
      "type": "event"
    },
    {
      "inputs": [
        {
          "internalType": "address",
          "name": "owner",
          "type": "address"
        },
        {
          "internalType": "address",
          "name": "spender",
          "type": "address"
        }
      ],
      "name": "allowance",
      "outputs": [
        {
          "internalType": "uint256",
          "name": "",
          "type": "uint256"
        }
      ],
      "stateMutability": "view",
      "type": "function"
    },
    {
      "inputs": [
        {
          "internalType": "address",
          "name": "spender",
          "type": "address"
        },
        {
          "internalType": "uint256",
          "name": "value",
          "type": "uint256"
        }
      ],
      "name": "approve",
      "outputs": [
        {
          "internalType": "bool",
          "name": "",
          "type": "bool"
        }
      ],
      "stateMutability": "nonpayable",
      "type": "function"
    },
    {
      "inputs": [
        {
          "internalType": "address",
          "name": "account",
          "type": "address"
        }
      ],
      "name": "balanceOf",
      "outputs": [
        {
          "internalType": "uint256",
          "name": "",
          "type": "uint256"
        }
      ],
      "stateMutability": "view",
      "type": "function"
    },
    {
      "inputs": [],
      "name": "decimals",
      "outputs": [
        {
          "internalType": "uint8",
          "name": "",
          "type": "uint8"
        }
      ],
      "stateMutability": "view",
      "type": "function"
    },
    {
      "inputs": [
        {
          "internalType": "address",
          "name": "tokenReceiver",
          "type": "address"
        },
        {
          "internalType": "uint256",
          "name": "amount",
          "type": "uint256"
        }
      ],
      "name": "distributeTokens",
      "outputs": [],
      "stateMutability": "nonpayable",
      "type": "function"
    },
    {
      "inputs": [],
      "name": "name",
      "outputs": [
        {
          "internalType": "string",
          "name": "",
          "type": "string"
        }
      ],
      "stateMutability": "view",
      "type": "function"
    },
    {
      "inputs": [
        {
          "internalType": "address",
          "name": "teacherAddress",
          "type": "address"
        },
        {
          "internalType": "bool",
          "name": "isTeacher",
          "type": "bool"
        }
      ],
      "name": "setTeacher",
      "outputs": [],
      "stateMutability": "nonpayable",
      "type": "function"
    },
    {
      "inputs": [],
      "name": "symbol",
      "outputs": [
        {
          "internalType": "string",
          "name": "",
          "type": "string"
        }
      ],
      "stateMutability": "view",
      "type": "function"
    },
    {
      "inputs": [
        {
          "internalType": "address",
          "name": "",
          "type": "address"
        }
      ],
      "name": "teachers",
      "outputs": [
        {
          "internalType": "bool",
          "name": "",
          "type": "bool"
        }
      ],
      "stateMutability": "view",
      "type": "function"
    },
    {
      "inputs": [],
      "name": "totalSupply",
      "outputs": [
        {
          "internalType": "uint256",
          "name": "",
          "type": "uint256"
        }
      ],
      "stateMutability": "view",
      "type": "function"
    },
    {
      "inputs": [
        {
          "internalType": "address",
          "name": "recipient",
          "type": "address"
        },
        {
          "internalType": "uint256",
          "name": "amount",
          "type": "uint256"
        }
      ],
      "name": "transfer",
      "outputs": [
        {
          "internalType": "bool",
          "name": "",
          "type": "bool"
        }
      ],
      "stateMutability": "nonpayable",
      "type": "function"
    },
    {
      "inputs": [
        {
          "internalType": "address",
          "name": "sender",
          "type": "address"
        },
        {
          "internalType": "address",
          "name": "recipient",
          "type": "address"
        },
        {
          "internalType": "uint256",
          "name": "amount",
          "type": "uint256"
        }
      ],
      "name": "transferFrom",
      "outputs": [
        {
          "internalType": "bool",
          "name": "",
          "type": "bool"
        }
      ],
      "stateMutability": "nonpayable",
      "type": "function"
    }
  ],
  "bytecode": {
    "object": "0x60806040523480156200001157600080fd5b5060405162000e0038038062000e008339810160408190526200003491620002c5565b82826003620000448382620003c7565b506004620000538282620003c7565b5050506200006833826200008b60201b60201c565b5050336000908152600560205260409020805460ff1916600117905550620004bb565b6001600160a01b038216620000bb5760405163ec442f0560e01b8152600060048201526024015b60405180910390fd5b620000c960008383620000cd565b5050565b6001600160a01b038316620000fc578060026000828254620000f0919062000493565b90915550620001709050565b6001600160a01b03831660009081526020819052604090205481811015620001515760405163391434e360e21b81526001600160a01b03851660048201526024810182905260448101839052606401620000b2565b6001600160a01b03841660009081526020819052604090209082900390555b6001600160a01b0382166200018e57600280548290039055620001ad565b6001600160a01b03821660009081526020819052604090208054820190555b816001600160a01b0316836001600160a01b03167fddf252ad1be2c89b69c2b068fc378daa952ba7f163c4a11628f55a4df523b3ef83604051620001f391815260200190565b60405180910390a3505050565b634e487b7160e01b600052604160045260246000fd5b600082601f8301126200022857600080fd5b81516001600160401b038082111562000245576200024562000200565b604051601f8301601f19908116603f0116810190828211818310171562000270576200027062000200565b816040528381526020925086838588010111156200028d57600080fd5b600091505b83821015620002b1578582018301518183018401529082019062000292565b600093810190920192909252949350505050565b600080600060608486031215620002db57600080fd5b83516001600160401b0380821115620002f357600080fd5b620003018783880162000216565b945060208601519150808211156200031857600080fd5b50620003278682870162000216565b925050604084015190509250925092565b600181811c908216806200034d57607f821691505b6020821081036200036e57634e487b7160e01b600052602260045260246000fd5b50919050565b601f821115620003c257600081815260208120601f850160051c810160208610156200039d5750805b601f850160051c820191505b81811015620003be57828155600101620003a9565b5050505b505050565b81516001600160401b03811115620003e357620003e362000200565b620003fb81620003f4845462000338565b8462000374565b602080601f8311600181146200043357600084156200041a5750858301515b600019600386901b1c1916600185901b178555620003be565b600085815260208120601f198616915b82811015620004645788860151825594840194600190910190840162000443565b5085821015620004835787850151600019600388901b60f8161c191681555b5050505050600190811b01905550565b80820180821115620004b557634e487b7160e01b600052601160045260246000fd5b92915050565b61093580620004cb6000396000f3fe608060405234801561001057600080fd5b50600436106100b45760003560e01c8063313ce56711610071578063313ce5671461014757806370a082311461015657806395d89b411461017f578063a9059cbb14610187578063dd62ed3e1461019a578063f0a47f78146101d357600080fd5b8063059e7d43146100b957806306fdde03146100ce578063095ea7b3146100ec578063158a49881461010f57806318160ddd1461012257806323b872dd14610134575b600080fd5b6100cc6100c7366004610650565b6101f6565b005b6100d661023d565b6040516100e3919061068c565b60405180910390f35b6100ff6100fa3660046106da565b6102cf565b60405190151581526020016100e3565b6100cc61011d3660046106da565b6102e9565b6002545b6040519081526020016100e3565b6100ff610142366004610704565b61032f565b604051601281526020016100e3565b610126610164366004610740565b6001600160a01b031660009081526020819052604090205490565b6100d6610387565b6100ff6101953660046106da565b610396565b6101266101a8366004610762565b6001600160a01b03918216600090815260016020908152604080832093909416825291909152205490565b6100ff6101e1366004610740565b60056020526000908152604090205460ff1681565b3360009081526005602052604090205460ff1661021257600080fd5b6001600160a01b03919091166000908152600560205260409020805460ff1916911515919091179055565b60606003805461024c90610795565b80601f016020809104026020016040519081016040528092919081815260200182805461027890610795565b80156102c55780601f1061029a576101008083540402835291602001916102c5565b820191906000526020600020905b8154815290600101906020018083116102a857829003601f168201915b5050505050905090565b6000336102dd8185856103e4565b60019150505b92915050565b3360009081526005602052604090205460ff1661030557600080fd5b6012600061031482600a6108c9565b90506103298461032483866108d5565b6103f6565b50505050565b604080516001600160a01b038086168252841660208201529081018290526000907fd0694e7d49b27f4b4a961ce3805328af4167444e06ff16117cdd1a58ac82a0769060600160405180910390a15060009392505050565b60606004805461024c90610795565b604080516001600160a01b0384168152602081018390526000917fc6b2ad30756dffa7b99169519666c366309cf8ad0d54999b1b472775854fc8da910160405180910390a150600092915050565b6103f18383836001610435565b505050565b6001600160a01b0382166104255760405163ec442f0560e01b8152600060048201526024015b60405180910390fd5b6104316000838361050a565b5050565b6001600160a01b03841661045f5760405163e602df0560e01b81526000600482015260240161041c565b6001600160a01b03831661048957604051634a1406b160e11b81526000600482015260240161041c565b6001600160a01b038085166000908152600160209081526040808320938716835292905220829055801561032957826001600160a01b0316846001600160a01b03167f8c5be1e5ebec7d5bd14f71427d1e84f3dd0314c0f7b2291e5b200ac8c7c3b925846040516104fc91815260200190565b60405180910390a350505050565b6001600160a01b03831661053557806002600082825461052a91906108ec565b909155506105a79050565b6001600160a01b038316600090815260208190526040902054818110156105885760405163391434e360e21b81526001600160a01b0385166004820152602481018290526044810183905260640161041c565b6001600160a01b03841660009081526020819052604090209082900390555b6001600160a01b0382166105c3576002805482900390556105e2565b6001600160a01b03821660009081526020819052604090208054820190555b816001600160a01b0316836001600160a01b03167fddf252ad1be2c89b69c2b068fc378daa952ba7f163c4a11628f55a4df523b3ef8360405161062791815260200190565b60405180910390a3505050565b80356001600160a01b038116811461064b57600080fd5b919050565b6000806040838503121561066357600080fd5b61066c83610634565b91506020830135801515811461068157600080fd5b809150509250929050565b600060208083528351808285015260005b818110156106b95785810183015185820160400152820161069d565b506000604082860101526040601f19601f8301168501019250505092915050565b600080604083850312156106ed57600080fd5b6106f683610634565b946020939093013593505050565b60008060006060848603121561071957600080fd5b61072284610634565b925061073060208501610634565b9150604084013590509250925092565b60006020828403121561075257600080fd5b61075b82610634565b9392505050565b6000806040838503121561077557600080fd5b61077e83610634565b915061078c60208401610634565b90509250929050565b600181811c908216806107a957607f821691505b6020821081036107c957634e487b7160e01b600052602260045260246000fd5b50919050565b634e487b7160e01b600052601160045260246000fd5b600181815b80851115610820578160001904821115610806576108066107cf565b8085161561081357918102915b93841c93908002906107ea565b509250929050565b600082610837575060016102e3565b81610844575060006102e3565b816001811461085a576002811461086457610880565b60019150506102e3565b60ff841115610875576108756107cf565b50506001821b6102e3565b5060208310610133831016604e8410600b84101617156108a3575081810a6102e3565b6108ad83836107e5565b80600019048211156108c1576108c16107cf565b029392505050565b600061075b8383610828565b80820281158282048414176102e3576102e36107cf565b808201808211156102e3576102e36107cf56fea264697066735822122063437b2f05e789563f3708f326e9ea8c55e2a331167506bea261f164e09acbf664736f6c63430008150033",
    "linkReferences": {}
  },
  "methodIdentifiers": {
    "allowance(address,address)": "dd62ed3e",
    "approve(address,uint256)": "095ea7b3",
    "balanceOf(address)": "70a08231",
    "decimals()": "313ce567",
    "distributeTokens(address,uint256)": "158a4988",
    "name()": "06fdde03",
    "setTeacher(address,bool)": "059e7d43",
    "symbol()": "95d89b41",
    "teachers(address)": "f0a47f78",
    "totalSupply()": "18160ddd",
    "transfer(address,uint256)": "a9059cbb",
    "transferFrom(address,address,uint256)": "23b872dd"
  },
  "id": 20
}