{
  "abi": [
    {
      "inputs": [
        {
          "internalType": "string",
          "name": "name",
          "type": "string"
        },
        {
          "internalType": "string",
          "name": "symbol",
          "type": "string"
        },
        {
          "internalType": "uint256",
          "name": "initialSupply",
          "type": "uint256"
        }
      ],
      "stateMutability": "nonpayable",
      "type": "constructor"
    },
    {
      "inputs": [
        {
          "internalType": "address",
          "name": "spender",
          "type": "address"
        },
        {
          "internalType": "uint256",
          "name": "allowance",
          "type": "uint256"
        },
        {
          "internalType": "uint256",
          "name": "needed",
          "type": "uint256"
        }
      ],
      "name": "ERC20InsufficientAllowance",
      "type": "error"
    },
    {
      "inputs": [
        {
          "internalType": "address",
          "name": "sender",
          "type": "address"
        },
        {
          "internalType": "uint256",
          "name": "balance",
          "type": "uint256"
        },
        {
          "internalType": "uint256",
          "name": "needed",
          "type": "uint256"
        }
      ],
      "name": "ERC20InsufficientBalance",
      "type": "error"
    },
    {
      "inputs": [
        {
          "internalType": "address",
          "name": "approver",
          "type": "address"
        }
      ],
      "name": "ERC20InvalidApprover",
      "type": "error"
    },
    {
      "inputs": [
        {
          "internalType": "address",
          "name": "receiver",
          "type": "address"
        }
      ],
      "name": "ERC20InvalidReceiver",
      "type": "error"
    },
    {
      "inputs": [
        {
          "internalType": "address",
          "name": "sender",
          "type": "address"
        }
      ],
      "name": "ERC20InvalidSender",
      "type": "error"
    },
    {
      "inputs": [
        {
          "internalType": "address",
          "name": "spender",
          "type": "address"
        }
      ],
      "name": "ERC20InvalidSpender",
      "type": "error"
    },
    {
      "anonymous": false,
      "inputs": [
        {
          "indexed": true,
          "internalType": "address",
          "name": "owner",
          "type": "address"
        },
        {
          "indexed": true,
          "internalType": "address",
          "name": "spender",
          "type": "address"
        },
        {
          "indexed": false,
          "internalType": "uint256",
          "name": "value",
          "type": "uint256"
        }
      ],
      "name": "Approval",
      "type": "event"
    },
    {
      "anonymous": false,
      "inputs": [
        {
          "indexed": true,
          "internalType": "address",
          "name": "from",
          "type": "address"
        },
        {
          "indexed": true,
          "internalType": "address",
          "name": "to",
          "type": "address"
        },
        {
          "indexed": false,
          "internalType": "uint256",
          "name": "value",
          "type": "uint256"
        }
      ],
      "name": "Transfer",
      "type": "event"
    },
    {
      "inputs": [
        {
          "internalType": "address",
          "name": "owner",
          "type": "address"
        },
        {
          "internalType": "address",
          "name": "spender",
          "type": "address"
        }
      ],
      "name": "allowance",
      "outputs": [
        {
          "internalType": "uint256",
          "name": "",
          "type": "uint256"
        }
      ],
      "stateMutability": "view",
      "type": "function"
    },
    {
      "inputs": [
        {
          "internalType": "address",
          "name": "spender",
          "type": "address"
        },
        {
          "internalType": "uint256",
          "name": "value",
          "type": "uint256"
        }
      ],
      "name": "approve",
      "outputs": [
        {
          "internalType": "bool",
          "name": "",
          "type": "bool"
        }
      ],
      "stateMutability": "nonpayable",
      "type": "function"
    },
    {
      "inputs": [
        {
          "internalType": "address",
          "name": "account",
          "type": "address"
        }
      ],
      "name": "balanceOf",
      "outputs": [
        {
          "internalType": "uint256",
          "name": "",
          "type": "uint256"
        }
      ],
      "stateMutability": "view",
      "type": "function"
    },
    {
      "inputs": [],
      "name": "decimals",
      "outputs": [
        {
          "internalType": "uint8",
          "name": "",
          "type": "uint8"
        }
      ],
      "stateMutability": "view",
      "type": "function"
    },
    {
      "inputs": [],
      "name": "getToken",
      "outputs": [
        {
          "internalType": "bool",
          "name": "",
          "type": "bool"
        }
      ],
      "stateMutability": "nonpayable",
      "type": "function"
    },
    {
      "inputs": [],
      "name": "name",
      "outputs": [
        {
          "internalType": "string",
          "name": "",
          "type": "string"
        }
      ],
      "stateMutability": "view",
      "type": "function"
    },
    {
      "inputs": [],
      "name": "symbol",
      "outputs": [
        {
          "internalType": "string",
          "name": "",
          "type": "string"
        }
      ],
      "stateMutability": "view",
      "type": "function"
    },
    {
      "inputs": [],
      "name": "totalSupply",
      "outputs": [
        {
          "internalType": "uint256",
          "name": "",
          "type": "uint256"
        }
      ],
      "stateMutability": "view",
      "type": "function"
    },
    {
      "inputs": [
        {
          "internalType": "address",
          "name": "to",
          "type": "address"
        },
        {
          "internalType": "uint256",
          "name": "value",
          "type": "uint256"
        }
      ],
      "name": "transfer",
      "outputs": [
        {
          "internalType": "bool",
          "name": "",
          "type": "bool"
        }
      ],
      "stateMutability": "nonpayable",
      "type": "function"
    },
    {
      "inputs": [
        {
          "internalType": "address",
          "name": "from",
          "type": "address"
        },
        {
          "internalType": "address",
          "name": "to",
          "type": "address"
        },
        {
          "internalType": "uint256",
          "name": "value",
          "type": "uint256"
        }
      ],
      "name": "transferFrom",
      "outputs": [
        {
          "internalType": "bool",
          "name": "",
          "type": "bool"
        }
      ],
      "stateMutability": "nonpayable",
      "type": "function"
    }
  ],
  "bytecode": {
    "object": "0x60806040523480156200001157600080fd5b5060405162000d5838038062000d588339810160408190526200003491620002ab565b82826003620000448382620003ad565b506004620000538282620003ad565b5050506200006833826200007160201b60201c565b505050620004a1565b6001600160a01b038216620000a15760405163ec442f0560e01b8152600060048201526024015b60405180910390fd5b620000af60008383620000b3565b5050565b6001600160a01b038316620000e2578060026000828254620000d6919062000479565b90915550620001569050565b6001600160a01b03831660009081526020819052604090205481811015620001375760405163391434e360e21b81526001600160a01b0385166004820152602481018290526044810183905260640162000098565b6001600160a01b03841660009081526020819052604090209082900390555b6001600160a01b038216620001745760028054829003905562000193565b6001600160a01b03821660009081526020819052604090208054820190555b816001600160a01b0316836001600160a01b03167fddf252ad1be2c89b69c2b068fc378daa952ba7f163c4a11628f55a4df523b3ef83604051620001d991815260200190565b60405180910390a3505050565b634e487b7160e01b600052604160045260246000fd5b600082601f8301126200020e57600080fd5b81516001600160401b03808211156200022b576200022b620001e6565b604051601f8301601f19908116603f01168101908282118183101715620002565762000256620001e6565b816040528381526020925086838588010111156200027357600080fd5b600091505b8382101562000297578582018301518183018401529082019062000278565b600093810190920192909252949350505050565b600080600060608486031215620002c157600080fd5b83516001600160401b0380821115620002d957600080fd5b620002e787838801620001fc565b94506020860151915080821115620002fe57600080fd5b506200030d86828701620001fc565b925050604084015190509250925092565b600181811c908216806200033357607f821691505b6020821081036200035457634e487b7160e01b600052602260045260246000fd5b50919050565b601f821115620003a857600081815260208120601f850160051c81016020861015620003835750805b601f850160051c820191505b81811015620003a4578281556001016200038f565b5050505b505050565b81516001600160401b03811115620003c957620003c9620001e6565b620003e181620003da84546200031e565b846200035a565b602080601f831160018114620004195760008415620004005750858301515b600019600386901b1c1916600185901b178555620003a4565b600085815260208120601f198616915b828110156200044a5788860151825594840194600190910190840162000429565b5085821015620004695787850151600019600388901b60f8161c191681555b5050505050600190811b01905550565b808201808211156200049b57634e487b7160e01b600052601160045260246000fd5b92915050565b6108a780620004b16000396000f3fe608060405234801561001057600080fd5b506004361061009e5760003560e01c8063313ce56711610066578063313ce5671461011157806370a082311461012057806395d89b4114610149578063a9059cbb14610151578063dd62ed3e1461016457600080fd5b806306fdde03146100a3578063095ea7b3146100c157806318160ddd146100e457806321df0da7146100f657806323b872dd146100fe575b600080fd5b6100ab61019d565b6040516100b891906105df565b60405180910390f35b6100d46100cf366004610649565b61022f565b60405190151581526020016100b8565b6002545b6040519081526020016100b8565b6100d4610249565b6100d461010c366004610673565b610271565b604051601281526020016100b8565b6100e861012e3660046106af565b6001600160a01b031660009081526020819052604090205490565b6100ab610295565b6100d461015f366004610649565b6102a4565b6100e86101723660046106d1565b6001600160a01b03918216600090815260016020908152604080832093909416825291909152205490565b6060600380546101ac90610704565b80601f01602080910402602001604051908101604052809291908181526020018280546101d890610704565b80156102255780601f106101fa57610100808354040283529160200191610225565b820191906000526020600020905b81548152906001019060200180831161020857829003601f168201915b5050505050905090565b60003361023d8185856102b2565b60019150505b92915050565b600061026b3361025b6012600a610838565b61026690600a610847565b6102c4565b50600190565b60003361027f858285610303565b61028a858585610381565b506001949350505050565b6060600480546101ac90610704565b60003361023d818585610381565b6102bf83838360016103e0565b505050565b6001600160a01b0382166102f35760405163ec442f0560e01b8152600060048201526024015b60405180910390fd5b6102ff600083836104b5565b5050565b6001600160a01b03838116600090815260016020908152604080832093861683529290522054600019811461037b578181101561036c57604051637dc7a0d960e11b81526001600160a01b038416600482015260248101829052604481018390526064016102ea565b61037b848484840360006103e0565b50505050565b6001600160a01b0383166103ab57604051634b637e8f60e11b8152600060048201526024016102ea565b6001600160a01b0382166103d55760405163ec442f0560e01b8152600060048201526024016102ea565b6102bf8383836104b5565b6001600160a01b03841661040a5760405163e602df0560e01b8152600060048201526024016102ea565b6001600160a01b03831661043457604051634a1406b160e11b8152600060048201526024016102ea565b6001600160a01b038085166000908152600160209081526040808320938716835292905220829055801561037b57826001600160a01b0316846001600160a01b03167f8c5be1e5ebec7d5bd14f71427d1e84f3dd0314c0f7b2291e5b200ac8c7c3b925846040516104a791815260200190565b60405180910390a350505050565b6001600160a01b0383166104e05780600260008282546104d5919061085e565b909155506105529050565b6001600160a01b038316600090815260208190526040902054818110156105335760405163391434e360e21b81526001600160a01b038516600482015260248101829052604481018390526064016102ea565b6001600160a01b03841660009081526020819052604090209082900390555b6001600160a01b03821661056e5760028054829003905561058d565b6001600160a01b03821660009081526020819052604090208054820190555b816001600160a01b0316836001600160a01b03167fddf252ad1be2c89b69c2b068fc378daa952ba7f163c4a11628f55a4df523b3ef836040516105d291815260200190565b60405180910390a3505050565b600060208083528351808285015260005b8181101561060c578581018301518582016040015282016105f0565b506000604082860101526040601f19601f8301168501019250505092915050565b80356001600160a01b038116811461064457600080fd5b919050565b6000806040838503121561065c57600080fd5b6106658361062d565b946020939093013593505050565b60008060006060848603121561068857600080fd5b6106918461062d565b925061069f6020850161062d565b9150604084013590509250925092565b6000602082840312156106c157600080fd5b6106ca8261062d565b9392505050565b600080604083850312156106e457600080fd5b6106ed8361062d565b91506106fb6020840161062d565b90509250929050565b600181811c9082168061071857607f821691505b60208210810361073857634e487b7160e01b600052602260045260246000fd5b50919050565b634e487b7160e01b600052601160045260246000fd5b600181815b8085111561078f5781600019048211156107755761077561073e565b8085161561078257918102915b93841c9390800290610759565b509250929050565b6000826107a657506001610243565b816107b357506000610243565b81600181146107c957600281146107d3576107ef565b6001915050610243565b60ff8411156107e4576107e461073e565b50506001821b610243565b5060208310610133831016604e8410600b8410161715610812575081810a610243565b61081c8383610754565b80600019048211156108305761083061073e565b029392505050565b60006106ca60ff841683610797565b80820281158282048414176102435761024361073e565b808201808211156102435761024361073e56fea26469706673582212208052e8e52abf9e8f110bff55980810dc31ff38f7dfcfe01e2672465391b11dad64736f6c63430008150033",
    "linkReferences": {}
  },
  "methodIdentifiers": {
    "allowance(address,address)": "dd62ed3e",
    "approve(address,uint256)": "095ea7b3",
    "balanceOf(address)": "70a08231",
    "decimals()": "313ce567",
    "getToken()": "21df0da7",
    "name()": "06fdde03",
    "symbol()": "95d89b41",
    "totalSupply()": "18160ddd",
    "transfer(address,uint256)": "a9059cbb",
    "transferFrom(address,address,uint256)": "23b872dd"
  },
  "id": 24
}